:100000000C94F1000C940E010C940E010C940E0152
:100010000C940E010C940E010C940E010C940E0124
:100020000C940E010C9416050C94200E0C945E0E8C
:100030000C940E010C940E010C940E010C940E0104
:100040000C940E010C940E010C940E010C940E01F4
:100050000C940E010C940E010C940E010C940E01E4
:100060000C940E010C940E010C940E010C940E01D4
:100070000C940E010C940E010C940E010C940E01C4
:100080000C9464050C940E010C940E010C940E015A
:100090000C940E010C940E010C940E010C940E01A4
:1000A0000C940E010C940E010C940E01BE0DBB0DB0
:1000B000B80DB50DB20DAF0DAC0DA90DA60DA30D6C
:1000C000A00D9D0D9A0D970D940D910D8E0D8B0D1C
:1000D000880D850D820D7F0D7C0D790D760D730DCC
:1000E000700D6D0D6A0D670D640D610D5E0D5B0D7C
:1000F000580D550D520D4F0D4C0D490D460D430D2C
:10010000400D3D0D3A0D370D340D310D2E0D2B0DDB
:10011000280D250D220D1F0D1C0D190D160D130D8B
:10012000100D0D0D0A0D070D040D010DFE0C000143
:10013000000062011200020000740143000300008D
:10014000B7010401030904BB011202030904CF0132
:100150000603030904D701080001C112018036011A
:1001600081361201000202000010C0167A0400015C
:100170000102030109024300020100C03209040028
:100180000001020201000524001001052401010103
:10019000042402060524060001070582031000401E
:1001A00009040100020A00000007050302400000E4
:1001B000070584024000000403090412034A002ECC
:1001C0000020004600690065006E00650000000622
:1001D000034D0032000000080334003100300000FD
:1001E000000011241FBECFEFDAE0DEBFCDBF11E06B
:1001F000A0E0B1E0E2E9F9E202C005900D92AA3375
:10020000B107D9F711E0AAE3B1E001C01D92A0390E
:10021000B107E1F70E9443010C94C7140C9400004D
:1002200080EA9FE0909389008093880080ED97E0BA
:1002300090938B0080938A0090938D0080938C0024
:10024000269A279A8BE28093800089E1809381002F
:100250008EE490E090939900809398001092900023
:100260008DE080939100E1E7F0E080818D7F8083D5
:100270000895E1E6F0E080E8808310820E94091191
:100280000E9410010895CF93DF93CDB7DEB7E997B1
:100290000FB6F894DEBF0FBECDBFFE01319682E1EE
:1002A000DF011D928A95E9F70E943901DE0153961C
:1002B000E0E0F1E085E001900D928150E1F7CE01A0
:1002C000439665E070E00E948F118AE00E946B11F6
:1002D00020982898189904C1E8E8F3E1FBA7EAA759
:1002E000AA24BB240F2EF8EEEF2EF3E0FF2EF02D04
:1002F0008824992400E010E00F2EF0E4CF2EF1E0E6
:10030000DF2EF02D6624772463940F2EF1E44F2E18
:10031000F1E05F2EF02D0F2EF6E02F2EF1E03F2EB4
:10032000F02DC60168E00E94EC0A813059F4D60134
:100330008C918D3238F06A9A72987092490160926D
:10034000480102C06A9A729A8091480190914901CD
:100350008130910531F70115110509F040C0C60142
:1003600068E070E00E948F118AE30E946B11F60131
:1003700080818B3641F4D2018C91803721F4C70102
:100380000E9411114301F60180818B3659F4D2018C
:100390008C91893639F4C5010E9411118824992461
:1003A000689481F8F60180818B3669F4D2018C91D2
:1003B000843649F48AA59BA50E9411110F2EF3E003
:1003C0008F2E9924F02DE3EDF0E33197F1F700C083
:1003D00000008AE00E946B110F5F1F4F58C0C601DA
:1003E0000E94D8138C01009719F5D6018C918033A7
:1003F000F9F0FE017896D10188E00D9001928150CC
:10040000E1F7CE01489668E070E00E948F11E3EDBD
:10041000F0E33197F1F700C000008AE00E946B1111
:1004200083ED90E30197F1F700C0000083012FC036
:10043000C60168E070E00E948F11A3EDB0E3119750
:10044000F1F700C000008AE00E946B11E3EDF0E3D9
:100450003197F1F700C00000F2E08F16910459F0D7
:1004600023E08216910459F031E08316910461F083
:1004700000E010E00CC0580100E010E008C01BA72D
:100480000AA700E010E003C0780100E010E0D60108
:100490008C91833791F4F2018081843771F4A2E466
:1004A000B1E08C91813649F4E3E4F1E08081823758
:1004B00021F412968C918437F9F010924901109230
:1004C00048018C2D9D2D60E070E048E050E00E94D6
:1004D000F613E7EAF1E63197F1F700C0000021CF0B
:1004E00028E833E13BA72AA7AA24BB240F2EF8EE65
:1004F000EF2EF3E0FF2EF02D6A9A729A81E090E0E1
:1005000060E070E00E9423090097C1F303EF11E05F
:10051000CC24DD241FA21EA21DA21CA2222433244F
:100520004424552437017501CE0101960E9490099B
:10053000009741F18B819C810F2EF6ED2F2EFFEF5E
:100540003F2EF02D280E391E8F8198854424552486
:10055000689445F8480E591EB101882777FD8095AB
:10056000982F0E94C2124B015C01B201882777FDCF
:100570008095982F0E94C2129B01AC01C501B40165
:100580000E948805B601882777FD8095982F0E94E4
:10059000C212209178013091790140917A015091F5
:1005A0007B010E94C311462F572F682F792FCB0153
:1005B000BA010E948F126B010150104009F0B4CFB4
:1005C0003DA22CA25FA24EA257017301CB0164EFA2
:1005D00071E00E94B113E1E7F0E0808182608083E6
:1005E000EBE6F0E0808180618083E8E6F0E08081E6
:1005F000816080832498259878942224332466246B
:1006000077240F2EF0ED4F2EF7E05F2EF02D40ED0A
:1006100057E059A348A319A618A61BA21AA2CB01FA
:10062000AA2797FDA095BA2F8EA79FA7A8ABB9AB15
:100630009701442737FD4095542F2AAB3BAB4CAB79
:100640005DABC501AA2797FDA095BA2F8EAB9FABD6
:10065000A8AFB9AF2AA53BA5442737FD4095542F35
:100660002AA73BA74CA75DA780914E0190914F010F
:100670008130910509F04FC1F894CE0101960E9496
:100680009009009729F06E9A9EB180E489278EB96F
:100690008B819C81AC014A5250405DA34CA38F8159
:1006A0009885A4EEBFEFA81BB90BBFA3AEA3BA01F8
:1006B000882777FD8095982F0E94C2126B017C01DC
:1006C000EEA1FFA1BF01882777FD8095982F0E949A
:1006D000C2129B01AC01C701B6010E9488056EA53C
:1006E0007FA588A999A90E94C2129B01AC016091C3
:1006F00078017091790180917A0190917B010E943B
:10070000C2110E948F12DC01CB018C0128A539A5F2
:10071000280F391F39A728A7B801882777FD8095AA
:10072000982F0E94C2126B017C016AA97BA98CA937
:100730009DA90E94C21220E030E04AE754E40E94E2
:1007400027129B01AC01C701B6010E944E134B0159
:100750005C0148A559A5BA01882777FD8095982F97
:100760000E94C2126B017C016EA97FA988AD99AD70
:100770000E94C21220E030E04AE754E40E942712AF
:100780009B01AC01C701B6010E944E139B01AC0155
:10079000C501B4010E94C3114B015C01B8018AA1DB
:1007A0009BA1681B790B882777FD8095982F0E9465
:1007B000C2126B017C016AA57BA58CA59DA50E9438
:1007C000C21220E030E04AE754E40E9427129B0165
:1007D000AC01C701B6010E944E139B01AC01C501DB
:1007E000B4010E94C3110E948F12DC01CB019C0155
:1007F000101611063CF48FE197E0DC01A21BB30B4D
:10080000B9A3A8A3112334F4E1E9F8E0E21BF30B48
:10081000F9A3E8A301151105B1F44AA15BA11416CF
:10082000150624F48FE197E099A388A3AAA1BBA1A0
:10083000BB231CF01BA21AA206C0E1E9F8E0F9A351
:10084000E8A31BA21AA21016110644F40F2EF1E41D
:100850004F2EF7E05F2EF02D421A530A112344F475
:100860000F2EF4E64F2EF8E05F2EF02D421A530AB9
:1008700001151105A9F42AA13BA11216130634F49F
:100880000F2EF1E44F2EF7E05F2EF02D4AA15BA171
:10089000552334F40F2EF4E64F2EF8E05F2EF02DA2
:1008A00088A199A1AFE0813A9A0724F48330910599
:1008B00034F009C0E0EAFFE0F9A3E8A304C023E0B4
:1008C00030E039A328A331EA43163FE053062CF465
:1008D00043E04416510444F00CC00F2EF0EA4F2EB2
:1008E000FFE05F2EF02D05C00F2EF3E04F2E5524B4
:1008F000F02DE8A1F9A1AAE8B0E01196FC93EE93DF
:10090000ACE8B0E011965C924E9210924F011092BA
:100910004E011BA30AA380914C0190914D0183319C
:10092000910509F0A1CEF89400913E0110913F018C
:10093000600E711E260C371CB301882777FD809549
:10094000982F0E94C21220E030E040E850E40E945C
:100950004E136B017C01B101882777FD8095982F9C
:100960000E94C21220E030E040E05FE30E944E139C
:100970009B01AC01C701B6010E94C3116B017C0150
:10098000B801882777FD8095982F0E94C21220E039
:1009900030E040EA50E40E944E139B01AC01C701D5
:1009A000B6010E94C3110E948F12862F972FB1E0CB
:1009B000853F9B0714F084EF91E0EEEF8C309E07AB
:1009C00014F48CE09EEF28A139A1280F391FAAE862
:1009D000B0E011963C932E93840D951DECE8F0E069
:1009E000918380838CA19DA10E94111189E00E94B6
:1009F0006B118EA19FA10E94111189E00E946B11C1
:100A00008AA19BA10E9411118AE00E946B116A9A2F
:100A10009EB184E089278EB910924D0110924C014D
:100A200010923F0110923E0178941ECE1F920F92B9
:100A30000FB60F9211248F939F9381E090E01C9941
:100A400002C080E090E090933D0180933C0181E002
:100A500090E01D9902C080E090E090933B0180936C
:100A60003A0180913C0190913D018130910529F539
:100A700080913A0190913B01009781F480913E0171
:100A800090913F01019690933F0180933E0181E058
:100A900090E09093100180930F010FC080913E0170
:100AA00090913F01019790933F0180933E018FEF1A
:100AB0009FEF9093100180930F019F918F910F9062
:100AC0000FBE0F901F9018951F920F920FB60F92A6
:100AD00011248F939F9381E090E090934F01809336
:100AE0004E0180914C0190914D01833191054CF460
:100AF00080914C0190914D01019690934D0180930E
:100B00004C019F918F910F900FBE0F901F901895E1
:100B10002F923F924F925F926F927F928F929F920D
:100B2000AF92BF92CF92DF92EF92FF920F931F93FB
:100B3000CF93DF93CDB7DEB7AA970FB6F894DEBF99
:100B40000FBECDBF6D837E838F83988729A33AA381
:100B50004BA35CA3409174015091750160917601A3
:100B6000709177014D8B5E8B6F8B788F6091220136
:100B700070912301809124019091250169877A87E2
:100B80008B879C8769A17AA18BA19CA12D893E8925
:100B90004F89588D0E94C21129853A854B855C8505
:100BA0000E944E13209178013091790140917A0191
:100BB00050917B010E94C3116DA37EA38FA398A7C0
:100BC0004090160150901701609018017090190123
:100BD00080911A0190911B01A0911C01B0911D01FF
:100BE00089839A83AB83BC8360912E0170912F011E
:100BF0008091300190913101A30192010E94C211B4
:100C000029813A814B815C810E94C211B62FA72FA6
:100C1000382F292F982F4B2F5A2F692F722F40933F
:100C200050015093510160935201709353014091D0
:100C30001E0150911F016091200170912101498F87
:100C40005A8F6B8F7C8F6A017B01F7FAF094F7F86B
:100C5000F094C0925401D0925501E0925601F09266
:100C60005701C0925801D0925901E0925A01F09276
:100C70005B0160912A0170912B0180912C01909170
:100C80002D016D8F7E8F8F8F98A360935C01709381
:100C90005D0180935E0190935F0186E191E09A8B04
:100CA000898B69857A858B859C85422F0B2F1A2F1E
:100CB000232F342FA90198010E944E13A989BA89C4
:100CC0005E914E913E912E91BA8BA98B0E94C311D9
:100CD000B62EA72E982E892E69857A858B859C85C0
:100CE000A70196010E944E13E62ED72EF82EC92E8C
:100CF000C301B2010E2D1D2D2F2D3C2DA9019801F0
:100D00000E94C3116D877E878F87988B69817A8156
:100D10008B819C812F2D3C2DA90198010E94C3112C
:100D2000462E772E682E592E6D817E818F81988573
:100D3000FDA1EEA15FA148A50F2F1E2F252F342F57
:100D4000A90198010E94C21169837D838B8B9C8BC2
:100D5000472F382F292F862F942FA32FB22F809320
:100D60008C0190938D01A0938E01B0938F018B2DF8
:100D70009A2DA92DB82D8093700190937101A093A5
:100D80007201B0937301842D972DA62DB52D8093FC
:100D90007C0190937D01A0937E01B0937F018B2D08
:100DA0009A2DA92DB82DBC01CD012091260130919D
:100DB000270140912801509129010E94C311C62E9C
:100DC00079A78AA7F92E472F382F862F942FA32F84
:100DD000BF2D8093840190938501A0938601B093E9
:100DE00087018B2D9A2DA92DB82DBC01CD01E9A528
:100DF0005AA50C2D1E2F252F3F2DA90198010E94C9
:100E00002712E62ED72E382E292E862F9D2DA32D84
:100E1000B22D8093880190938901A0938A01B093A9
:100E20008B01842D972DA62DB52DBC01CD015AA582
:100E3000252F3F2DA90198010E942712C62E79A7C0
:100E40008AA7F92E472F382F862F942FA32FBF2D37
:100E50008093800190938101A0938201B0938301DC
:100E60008B2D9A2DA92DB82D80936C0190936D0137
:100E7000A0936E01B0936F015D854E853F852889F3
:100E8000852F942FA32FB22F809364019093650137
:100E9000A0936601B09367018B2D9A2DA92DB82DD3
:100EA000BC01CD010E2D1D2D232D322DA901980140
:100EB0000E944E139B01AC018B2D9A2DA92DB82DAC
:100EC000BC01CD010E94C211DC01CB01E989FA8984
:100ED00080839183A283B3835D854E853F85288976
:100EE000852F942FA32FB22FBC01CD01232D322D9E
:100EF000A90198010E944E139B01AC01FD85EE856E
:100F00007F8568898F2F9E2FA72FB62FBC01CD011B
:100F10000E94C211DC01CB0180931601909317014E
:100F2000A0931801B09319018B2D9A2DA92DB82DDE
:100F3000BC01CD01E9A55AA50C2D1E2F252F3F2D53
:100F4000A90198010E944E139B01AC01842D972D9D
:100F5000A62DB52DBC01CD010E94C211DC01CB0133
:100F600080931A0190931B01A0931C01B0931D0163
:100F700069857A858B859C852D8D3E8D4F8D58A1F9
:100F80000E944E139B01AC01698D7A8D8B8D9C8DD7
:100F90000E94C3112B013C015D854E853F85288948
:100FA000852F942FA32FB22FBC01CD015AA5252F39
:100FB0003F2DA90198010E944E139B01AC01C30172
:100FC000B2010E94C211DC01CB0180931E019093FB
:100FD0001F01A0932001B093210159814D813B89CC
:100FE0002C89852F942FA32FB22FBC01CD010E2D5C
:100FF0001D2D232D322DA90198010E944E139B0116
:10100000AC01FDA1EEA17FA168A58F2F9E2FA72F78
:10101000B62FBC01CD010E94C311DC01CB0180932E
:10102000780190937901A0937A01B0937B01598163
:101030004D813B892C89852F942FA32FB22FBC0182
:10104000CD01E9A55AA50C2D1E2F252F3F2DA90155
:1010500098010E944E139B01AC016D897E898F8996
:10106000988D0E94C311B62FA72F382F292F982FA4
:101070004B2F5A2F692F722F409374015093750193
:10108000609376017093770169A17AA18BA19CA1ED
:10109000422F0B2F1A2F232F342FA90198010E94C2
:1010A000C211DC01CB018093680190936901A09388
:1010B0006A01B0936B01AA960FB6F894DEBF0FBE1B
:1010C000CDBFDF91CF911F910F91FF90EF90DF90F7
:1010D000CF90BF90AF909F908F907F906F905F90D8
:1010E0004F903F902F900895589A599A5A9A8CE0B1
:1010F0008093B800E9E6F0E080818062808380819F
:101100008F7E8083EA9A7894089584E88093BC0067
:10111000ECEBF0E080818823ECF78091BB00089530
:1011200084E98093BC00089520E030E0ECEBF0E02F
:101130008081882334F02F5F3F4F83E0293E3807BA
:10114000B9F781E093E0283E390709F480E008957B
:101150008093BB0084E88093BC000E94940888239D
:1011600021F08091B900887F089580E00895CF93A1
:10117000DF93C82FD62F84EA8093BC000E94940886
:10118000882321F40E94900880E01AC0DD2359F0E2
:101190008C2F880F8F5F0E94A808883471F40E94FA
:1011A000900880E00DC08C2F880F0E94A808803224
:1011B00031F40E94900880E003C081E001C081E02A
:1011C000DF91CF910895CF93DF93C62FD42F60E0A6
:1011D0000E94B708882371F08C2F0E94A8088823EA
:1011E00059F08D2F0E94A808882341F00E94900892
:1011F00081E005C080E003C080E001C080E0DF91B5
:10120000CF910895CF93DF93C82FD62F60E00E942F
:10121000B708882381F08D2F0E94A808882369F0E1
:101220000E9490088C2F61E00E94B708882339F053
:101230000E94850805C080E003C080E001C080E016
:10124000DF91CF910895CF93DF93C82FD62F8430AD
:1012500008F05EC0643008F05DC00E9474088FE53D
:101260009AEEA0E081509040A040E1F700C000005D
:1012700089E665E70E940209883609F04DC089E6D3
:101280006BE641E00E94E3084C2F440F440F440FEB
:1012900089E66CE10E94E3084D2F440F440F440F90
:1012A00089E66BE10E94E30889E667E342E00E9479
:1012B000E3088EE162E040E00E94E30889E667E32C
:1012C00040E00E94E30889E664E34EE10E94E308FF
:1012D00089E667E641E00E94E30889E664E24DE1C1
:1012E0000E94E30889E665E24EE90E94E30889E688
:1012F00066E243E00E94E30889E667E246E90E946D
:10130000E30889E66AE640E20E94E30881E005C05E
:1013100080E003C080E001C080E0DF91CF910895BC
:10132000CF92DF92FF920F931F93CF93DF93CDB7AE
:10133000DEB764970FB6F894DEBF0FBECDBF6C0169
:101340008E010F5F1F4F0F2EFEE4FF2EF02D89E65A
:101350006F2D0E940209F80181938F01FA94FAE33C
:10136000FF16A9F78F859889F601958384838F816D
:1013700098859387828789819A81918B808B8989CF
:101380009A899383828389859A85918780878B81C7
:101390009C81978786878B899C89918380838B85A5
:1013A0009C85978386838D819E819587848781E044
:1013B00064960FB6F894DEBF0FBECDBFDF91CF911C
:1013C0001F910F91FF90DF90CF900895CF92DF9201
:1013D000FF920F931F93CF93DF9300D000D000D0E4
:1013E000CDB7DEB76C018E010F5F1F4FFF246894ED
:1013F000F6F889E66F2D0E940209F80181938F01AA
:10140000FA94FAE3FF16A9F789819A81F601958388
:1014100084838B819C81938382838D819E81918340
:10142000808381E026960FB6F894DEBF0FBECDBF55
:10143000DF91CF911F910F91FF90DF90CF90089592
:10144000CF92DF92FF920F931F93CF93DF9300D041
:1014500000D000D0CDB7DEB76C018E010F5F1F4FFB
:101460000F2EF8E4FF2EF02D89E66F2D0E94020961
:10147000F80181938F01FA94F2E4FF16A9F78981AC
:101480009A81F601958384838B819C8193838283E7
:101490008D819E819183808381E026960FB6F8949A
:1014A000DEBF0FBECDBFDF91CF911F910F91FF9097
:1014B000DF90CF900895CF92DF92FF920F931F930A
:1014C000CF93DF9300D000D000D0CDB7DEB76C0152
:1014D0008E010F5F1F4F0F2EFEE4FF2EF02D89E6C9
:1014E0006F2D0E940209F80181938F01FA94F8E4AC
:1014F000FF16A9F789819A81F601958384838B81F0
:101500009C81938382838D819E819183808381E0FE
:1015100026960FB6F894DEBF0FBECDBFDF91CF91F8
:101520001F910F91FF90DF90CF9008951F93CF935D
:10153000DF93C82FD62F142F0E94740884EA80935B
:10154000BC00ECEBF0E080818823ECF780E5809331
:10155000BB0084E88093BC00ECEBF0E08081882342
:10156000ECF78091B900887F803229F484E9809378
:10157000BC0080E02DC081E08093BB0084E88093B4
:10158000BC00ECEBF0E080818823ECF7C093BB005B
:1015900084E88093BC00ECEBF0E080818823ECF7DA
:1015A000D093BB0084E88093BC00ECEBF0E080813A
:1015B0008823ECF71093BB0084E88093BC00ECEB2D
:1015C000F0E080818823ECF784E98093BC0081E01F
:1015D000DF91CF911F910895CF93DF93AC0184EAFF
:1015E0008093BC00ECEBF0E080818823ECF781E590
:1015F0008093BB0084E88093BC00ECEBF0E080813A
:101600008823ECF78091B900887F883429F484E935
:101610008093BC0080E03EC084EC8093BC00ECEB87
:10162000F0E080818823ECF72091BB00261749F475
:1016300030E0215030401216130644F020E030E034
:1016400017C084E98093BC0080E024C0DA0180E008
:1016500090E0ECEBF0E074ECCBEBD0E070836081D9
:101660006623ECF768816D93019682179307B4F3B4
:1016700084E88093BC00ECEBF0E080818823ECF7F9
:101680008091BB00240F351FF901808384E980938A
:10169000BC0081E0DF91CF910895CF93DF93F89460
:1016A00094EA9093BC00ECEBF0E090819923ECF786
:1016B00090E59093BB0094E89093BC00ECEBF0E0D5
:1016C00090819923ECF79091B900987F903231F492
:1016D00084E98093BC00789480E032C093E09093DA
:1016E000BB0094E89093BC00ECEBF0E09081992370
:1016F000ECF78093BB0084E88093BC00ECEBF0E057
:1017000080818823ECF7242F30E0121613069CF416
:10171000A62FB72F80E090E0CBEBD0E0ECEBF0E031
:1017200054E84D914883508340814423ECF701965F
:1017300082179307B4F384E98093BC00789481E026
:10174000DF91CF91089581E08093D70080EA809364
:10175000D80082E189BD09B400FEFDCF80E9809305
:10176000D8001092E00010926101109262018CE0AA
:101770008093E200789408958091610108959FB765
:10178000F89480916101882319F49FBF8FEF089529
:1017900083E08093E9008091E80085FD03C09FBF4E
:1017A0008FEF08958091F1002091E80025FD03C09E
:1017B0002BE62093E8009FBF08959FB7F89480918F
:1017C0006101882331F083E08093E9008091F20089
:1017D00001C080E09FBF089580916101882389F056
:1017E0002FB7F89483E08093E9008091E80085FFAB
:1017F00007C0E8EEF0E09BE69083808185FDFCCF9A
:101800002FBF0895CF93DF9390916101992309F43D
:101810004DC09FB7F89424E02093E9002091630124
:10182000222349F02091E80025FD03C09FBF8FEFE0
:1018300042C0109263013091E4002091E80025FD40
:1018400026C0375E9FBF9091E400931749F09091B6
:101850006101992379F42CC09FBF9881931729F4D3
:1018600081E0809363018FEF26C0909161019923FD
:1018700041F420C0A9EEB0E044E0E8EEF0E0C4EEB0
:10188000D0E09FB7F8944C93208125FFE5CF80935B
:10189000F1008091E80085FD03C08AE38093E800B1
:1018A00085E0809360019FBF80E005C08FEF03C09B
:1018B0008FEF01C08FEFDF91CF910895909161017B
:1018C0009923D9F02FB7F89494E09093E900909180
:1018D000E80095FD03C02FBF8FEF08958093F100BE
:1018E0008091E80085FD03C08AE38093E80085E0ED
:1018F000809360012FBF80E008958FEF08959F923D
:10190000AF92BF92CF92DF92EF92FF920F931F930D
:10191000CF93DF93DC017B0180916101882309F47F
:101920003AC12FB7F89484E08093E9008091630175
:10193000882349F08091E80085FD03C02FBF8FEF19
:101940002FC110926301E114F10409F421C1C4EE26
:10195000D0E048EE50E009EE10E034E00F2EF2EF58
:10196000AF2EBB24F02DDD246894D6F861EF70E033
:101970000F2EFAE39F2EF02D0F2EF5E0CF2EF02D37
:101980009881FA01808185FD20C0975E2FBF8881F4
:10199000891749F080916101882379F4FEC02FBF37
:1019A0008881891729F481E0809363018FEFF8C063
:1019B00080916101882309F4F2C02FB7F894F801EF
:1019C0003083FA01808185FFEACFF5018081ED2D1A
:1019D000E81B8E2F90E0E816F90608F4EE2DEE1ABB
:1019E000F108F0E0E134F10508F0C5C0EA5AFF4F14
:1019F000EE0FFF1F0590F491E02D09948D91FB01EE
:101A000080838D91FB0180838D91FB0180838D917B
:101A1000FB0180838D91FB0180838D91FB0180838D
:101A20008D91FB0180838D91FB0180838D91FB0162
:101A300080838D91FB0180838D91FB0180838D914B
:101A4000FB0180838D91FB0180838D91FB0180835D
:101A50008D91FB0180838D91FB0180838D91FB0132
:101A600080838D91FB0180838D91FB0180838D911B
:101A7000FB0180838D91FB0180838D91FB0180832D
:101A80008D91FB0180838D91FB0180838D91FB0102
:101A900080838D91FB0180838D91FB0180838D91EB
:101AA000FB0180838D91FB0180838D91FB018083FD
:101AB0008D91FB0180838D91FB0180838D91FB01D2
:101AC00080838D91FB0180838D91FB0180838D91BB
:101AD000FB0180838D91FB0180838D91FB018083CD
:101AE0008D91FB0180838D91FB0180838D91FB01A2
:101AF00080838D91FB0180838D91FB0180838D918B
:101B0000FB0180838D91FB0180838D91FB0180839C
:101B10008D91FB0180838D91FB0180838D91FB0171
:101B200080838D91FB0180838D91FB0180838D915A
:101B3000FB0180838D91FB0180838D91FB0180836C
:101B40008D91FB0180838D91FB0180838D91FB0141
:101B500080838D91FB0180838D91FB0180838D912A
:101B6000FB0180838D91FB0180838D91FB0180833C
:101B70008D91FB0180838D91FB018083FA0180812F
:101B800085FF9082C0926001E114F10409F0F8CE63
:101B90002FBF80E005C08FEF03C08FEF01C08FEF34
:101BA000DF91CF911F910F91FF90EF90DF90CF9039
:101BB000BF90AF909F9008958FB7F8949091600177
:101BC000992341F094E09093E9009AE39093E80020
:101BD000109260018FBF0895809136010895809121
:101BE0003701089580913801089580916201089528
:101BF0002FB7F89490916101992319F42FBF8FEFBB
:101C0000089592E09093E9009091E80095FD03C05B
:101C10002FBF8FEF0895E1EFF0E091EA908390E21B
:101C20009083108210821082108292E09083108242
:101C3000808310828AE38093E8002FBF80E00895BC
:101C40001F920F920FB60F9211248F939F93EF93D1
:101C5000FF93E1EEF0E08081108283FF11C01092CB
:101C6000E90091E09093EB001092EC0092E19093E8
:101C7000ED0098E09093F0001092610110926201E3
:101C800082FF13C080916101882379F08091600107
:101C9000882359F0815080936001882331F484E0D7
:101CA0008093E9008AE38093E800FF91EF919F9190
:101CB0008F910F900FBE0F901F9018951F920F924B
:101CC0000FB60F9211240F931F932F933F934F93AF
:101CD0005F936F937F938F939F93AF93BF93CF93B4
:101CE000DF93EF93FF931092E9008091E80083FF68
:101CF0005BC1E1EFF0E040815081608170E02081C4
:101D0000922F80E0682B792B208130E0A0819A2FE0
:101D100080E0DC01A22BB32B3081C08182EF809365
:101D2000E800563009F063C004C081E28093EB0004
:101D30003EC126E04EE251E0FA0185919491681788
:101D4000790719F0495F5F4F24C0FA0132968591F7
:101D50009491A817B90719F0495F5F4F1AC0FA01AB
:101D6000349685919491682F792F4A5F5F4FFA01DD
:101D70004491232F30E09C2F80E0822B932B8F3FC8
:101D8000910519F010F08FEF90E0841728F4482F98
:101D900003C0215089F6C9CFC8EED0E05EEFA1EFB5
:101DA000B0E010E1888190E09C0125703070211531
:101DB0003105C1F382FDFBC0242F413108F0212FF2
:101DC000222371F0CB01322FFC010196E491EC93B8
:101DD0003150D1F7822F815090E00196680F791F22
:101DE000421B58834423F1F62031E1F2E0C0553024
:101DF00061F48EEF8093E800E8EEF0E0808180FFF0
:101E0000FDCF60686093E300D2C05930A1F5442350
:101E100091F56093610110926201109260018EEF62
:101E20008093E80041E028E531E0A9EEB0E0CBEE98
:101E3000D0E06CEE70E00DEE10E04C93C90101961D
:101E4000F90154915883552361F0FC018491FB0101
:101E50008083F90132962D5F3F4F8491F801808392
:101E600001C09C014F5F453041F7EAEEF0E08EE1A2
:101E7000808310829CC0583079F4403869F4E8EED1
:101E8000F0E0808180FFFDCF809161018093F100BF
:101E90008EEF8093E8008BC05132B1F4413AA1F447
:101EA000E8EEF0E0808180FFFDCFE2E3F1E0CF01DA
:101EB0000796A1EFB0E021912C93E817F907D9F725
:101EC0008EEF8093E80073C05032C9F44132B9F408
:101ED000E8EEF0E0808182FFFDCFE2E3F1E0CF01A8
:101EE0000796A1EFB0E02C912193E817F907D9F7F5
:101EF000E8EEF0E08BEF80838EEF808358C05232A3
:101F000069F4413259F460936201E8EEF0E08081B7
:101F100080FFFDCF8EEF8093E80049C05523D1F4B8
:101F2000E8EEF0E0808180FFFDCF423851F4A093CD
:101F3000E9009091EB0081E095FF80E01092E900CC
:101F400001C080E0E1EFF0E0808310828EEF8093AB
:101F5000E8002DC0513011F0533031F5423021F5F9
:101F60006115710509F58A2F8F77982F915094305C
:101F7000D8F49EEF9093E8008093E900533021F469
:101F800081E28093EB0013C099E19093EB0021E094
:101F900030E0A90102C0440F551F8A95E2F7EAEE2E
:101FA000F0E04083108203C081E28093EB00FF9158
:101FB000EF91DF91CF91BF91AF919F918F917F91E1
:101FC0006F915F914F913F912F911F910F910F90C2
:101FD0000FBE0F901F9018950F931F93CF93FC0186
:101FE000C491CC2389F08C010F5F1F4FCA3019F4C4
:101FF0008DE00E94020C8C2F0E94020CF8010F5FF2
:102000001F4FC491CC2391F7CF911F910F91089549
:102010008A3010F490E301C097E3890F0E94020C0C
:102020000895CF93C82F82958F700E9408108C2F2F
:102030008F700E940810CF910895CF93C82F892FD9
:102040000E9411108C2F0E941110CF9108950E94B0
:1020500011100895EF92FF920F931F93CF93DF9388
:10206000CDB7DEB727970FB6F894DEBF0FBECDBF52
:102070008E010F5F1F4F27E0F80111922A95E9F7B3
:10208000B8014AE050E00E94FD1378018E01085F1C
:102090001F4FF70181917F01882311F00E94020CEC
:1020A000E016F106B1F727960FB6F894DEBF0FBE23
:1020B000CDBFDF91CF911F910F91FF90EF900895C9
:1020C000EF92FF920F931F93CF93DF9300D000D036
:1020D0000F92CDB7DEB78E010F5F1F4F25E0F801DD
:1020E00011922A95E9F7B8014AE050E00E947F1466
:1020F00078018E010A5F1F4FF70181917F018823CC
:1021000011F00E94020CE016F106B1F70F900F904B
:102110000F900F900F90DF91CF911F910F91FF9033
:10212000EF900895EF92FF920F931F93CF93DF9359
:10213000CDB7DEB72B970FB6F894DEBF0FBECDBF7D
:102140008E010F5F1F4F2BE0F80111922A95E9F7DE
:10215000A8012AE030E00E941E1478018E01045F7D
:102160001F4FF70181917F01882311F00E94020C1B
:10217000E016F106B1F72B960FB6F894DEBF0FBE4E
:10218000CDBFDF91CF911F910F91FF90EF900895F8
:10219000EF92FF920F931F93CF93DF93CDB7DEB7EC
:1021A0002A970FB6F894DEBF0FBECDBF8E010F5F2A
:1021B0001F4F2AE0F80111922A95E9F7A8012AE0B9
:1021C00030E00E945A1478018E01055F1F4FF7011D
:1021D00081917F01882311F00E94020CE016F10624
:1021E000B1F72A960FB6F894DEBF0FBECDBFDF91D0
:1021F000CF911F910F91FF90EF9008951816190637
:102200003CF420E030E02F5F3F4F28173907D9F723
:1022100008950E94740881E067E148E00E94960AF0
:1022200008950F931F93CF93DF93CDB7DEB7289711
:102230000FB6F894DEBF0FBECDBF8E010F5F1F4FEC
:1022400028E0F80111922A95E9F7B8014AE050E038
:102250000E94FD138DE1B80148E00E944D0B88EE0D
:1022600093E00E94FE1028960FB6F894DEBF0FBED2
:10227000CDBFDF91CF911F910F9108950F931F93C1
:10228000CF93DF93CDB7DEB728970FB6F894DEBFB4
:102290000FBECDBF8E010F5F1F4F28E0F8011192D6
:1022A0002A95E9F7B8014AE050E00E947F148DE1D9
:1022B000B80148E00E944D0B88EE93E00E94FE10AA
:1022C00028960FB6F894DEBF0FBECDBFDF91CF9139
:1022D0001F910F910895CF93DF93CDB7DEB7289765
:1022E0000FB6F894DEBF0FBECDBFBE016F5F7F4F4C
:1022F00098E0FB0111929A95E9F789838DE148E016
:102300000E944D0B88EE93E00E94FE1028960FB6B7
:10231000F894DEBF0FBECDBFDF91CF910895CF936C
:10232000DF93CDB7DEB728970FB6F894DEBF0FBEA8
:10233000CDBFFE01319628E0DF011D922A95E9F715
:10234000161617065CF4A82FB92FFE0131966E0FF2
:102350007F1F8D918193E617F707D9F78DE1BE01B5
:102360006F5F7F4F48E00E944D0B88EE93E00E9424
:10237000FE1028960FB6F894DEBF0FBECDBFDF91DA
:10238000CF9108955058BB27AA270ED04DC13ED1FA
:1023900030F043D120F031F49F3F11F41EF433C1EB
:1023A0000EF4E095E7FB29C1E92F4FD180F3BA176E
:1023B000620773078407950718F071F49EF567C1EB
:1023C0000EF4E0950B2EBA2FA02D0B01B901900150
:1023D0000C01CA01A0011124FF27591B99F0593F94
:1023E00050F4503E68F11A16F040A22F232F342FDC
:1023F0004427585FF3CF469537952795A795F0402A
:102400005395C9F77EF41F16BA0B620B730B840B3E
:10241000BAF09150A1F0FF0FBB1F661F771F881FF6
:10242000C2F70EC0BA0F621F731F841F48F487954E
:1024300077956795B795F7959E3F08F0B3CF93953D
:10244000880F08F09927EE0F9795879508950CD07F
:10245000EBC0E3D040F0DAD030F021F45F3F19F068
:10246000CCC0511115C1CFC0F0D098F39923C9F356
:102470005523B1F3951B550BBB27AA27621773078A
:10248000840738F09F5F5F4F220F331F441FAA1F3E
:10249000A9F333D00E2E3AF0E0E830D091505040FE
:1024A000E695001CCAF729D0FE2F27D0660F771FAC
:1024B000881FBB1F261737074807AB07B0E809F08E
:1024C000BB0B802DBF01FF2793585F4F2AF09E3F23
:1024D000510568F092C0DCC05F3FECF3983EDCF33E
:1024E000869577956795B795F7959F5FC9F7880F9C
:1024F000911D9695879597F90895E1E0660F771FEE
:10250000881FBB1F621773078407BA0720F0621B7E
:10251000730B840BBA0BEE1F88F7E095089504D077
:102520006894B111B5C0089598D088F09F5790F085
:10253000B92F9927B751A0F0D1F0660F771F881FE8
:10254000991F1AF0BA95C9F712C0B13081F09FD027
:10255000B1E008959CC0672F782F8827B85F39F0C5
:10256000B93FCCF3869577956795B395D9F73EF447
:1025700090958095709561957F4F8F4F9F4F0895EF
:10258000E89409C097FB3EF490958095709561950D
:102590007F4F8F4F9F4F9923A9F0F92F96E9BB27C3
:1025A0009395F695879577956795B795F111F8CF3F
:1025B000FAF4BB0F11F460FF1BC06F5F7F4F8F4FAA
:1025C0009F4F16C0882311F096E911C0772321F0A0
:1025D0009EE8872F762F05C0662371F096E8862F38
:1025E00070E060E02AF09A95660F771F881FDAF78F
:1025F000880F9695879597F9089597F99F6780E8D2
:1026000070E060E008959FEF80EC089500240A9444
:102610001616170618060906089500240A941216BD
:102620001306140605060895092E0394000C11F4F0
:10263000882352F0BB0F40F4BF2B11F460FF04C09D
:102640006F5F7F4F8F4F9F4F089557FD9058440FF6
:10265000551F59F05F3F71F04795880F97FB991F01
:1026600061F09F3F79F087950895121613061406BE
:10267000551FF2CF4695F1DF08C01616170618064B
:10268000991FF1CF86957105610508940895E89426
:10269000BB2766277727CB0197F908950BD0C4CFC6
:1026A000B5DF28F0BADF18F0952309F0A6CFABCF3D
:1026B0001124EECFCADFA0F3959FD1F3950F50E020
:1026C000551F629FF001729FBB27F00DB11D639FE4
:1026D000AA27F00DB11DAA1F649F6627B00DA11D8A
:1026E000661F829F2227B00DA11D621F739FB00D30
:1026F000A11D621F839FA00D611D221F749F3327A0
:10270000A00D611D231F849F600D211D822F762F38
:102710006A2F11249F5750408AF0E1F088234AF035
:10272000EE0FFF1FBB1F661F771F881F9150504081
:10273000A9F79E3F510570F060CFAACF5F3FECF341
:10274000983EDCF3869577956795B795F795E7956D
:102750009F5FC1F7FE2B880F911D9695879597F97E
:10276000089597FB092E07260AD077FD04D00CD0D8
:1027700006D000201AF4709561957F4F0895F6F702
:10278000909581959F4F0895AA1BBB1B51E107C0EF
:10279000AA1FBB1FA617B70710F0A61BB70B881FF1
:1027A000991F5A95A9F780959095BC01CD01089580
:1027B000FC0188279927E89421912032E9F32930F8
:1027C00010F02E30C8F32B3241F02D3239F46894DA
:1027D00004C00E945214820F911D219120532A306F
:1027E000C0F31EF4909581959F4F0895DC0101C0C0
:1027F0006D9341505040E0F70895FB019F01E8942C
:102800004230C4F04532B4F44A3029F497FB1EF448
:10281000909581959F4F642F77270E94C413805D08
:102820008A330CF0895D8193CB010097A1F716F4F0
:102830005DE251931082C9010C949514FA01CF9373
:10284000FF93EF93223044F1253234F5C22FE89400
:10285000CA3049F497FB3EF4909580957095619548
:102860007F4F8F4F9F4F2C2F332744275527FF93A0
:10287000EF930E94A514EF91FF91605D6A330CF015
:10288000695D6193B901CA01605070408040904019
:1028900051F716F4CDE2C19310828F919F91CF91A1
:1028A0000C9495147AE0979F902D879F802D910D21
:1028B00011240895FA01CF93FF93EF932230CCF0C7
:1028C0002532BCF4C22F2C2F332744275527FF93E2
:1028D000EF930E94A514EF91FF91605D6A330CF0B5
:1028E000695D6193B901CA016050704080409040B9
:1028F00051F710828F919F91CF910C949514FB0109
:102900009F01423074F0453264F4642F77270E94AF
:10291000C413805D8A330CF0895D8193CB010097ED
:10292000A1F71082C9010C949514DC01FC01672FFA
:1029300071917723E1F7329704C07C916D93708396
:102940006291AE17BF07C8F30895A1E21A2EAA1B21
:10295000BB1BFD010DC0AA1FBB1FEE1FFF1FA2174F
:10296000B307E407F50720F0A21BB30BE40BF50B4C
:10297000661F771F881F991F1A9469F760957095D5
:10298000809590959B01AC01BD01CF010895F8940D
:02299000FFCF77
:1029920048656C6C6F00536179416761696E000133
:1029A20000010000803F0000000000000000000065
:1029B200803F0AD7A33B0000A0406F12833A9A9946
:0A29C200193E00E1000000000800CB
:00000001FF
